{
  "contractName": "HelloEventWithOwner",
  "abi": [
    {
      "inputs": [],
      "stateMutability": "nonpayable",
      "type": "constructor"
    },
    {
      "anonymous": false,
      "inputs": [
        {
          "indexed": false,
          "internalType": "uint8",
          "name": "newValue",
          "type": "uint8"
        },
        {
          "indexed": false,
          "internalType": "string",
          "name": "message",
          "type": "string"
        }
      ],
      "name": "Decreased",
      "type": "event"
    },
    {
      "anonymous": false,
      "inputs": [
        {
          "indexed": false,
          "internalType": "uint8",
          "name": "newValue",
          "type": "uint8"
        },
        {
          "indexed": false,
          "internalType": "string",
          "name": "message",
          "type": "string"
        }
      ],
      "name": "Increased",
      "type": "event"
    },
    {
      "anonymous": false,
      "inputs": [
        {
          "indexed": true,
          "internalType": "address",
          "name": "oldOwner",
          "type": "address"
        },
        {
          "indexed": true,
          "internalType": "address",
          "name": "newOwner",
          "type": "address"
        }
      ],
      "name": "OwnerSet",
      "type": "event"
    },
    {
      "anonymous": false,
      "inputs": [
        {
          "indexed": false,
          "internalType": "uint8",
          "name": "newValue",
          "type": "uint8"
        },
        {
          "indexed": false,
          "internalType": "string",
          "name": "message",
          "type": "string"
        }
      ],
      "name": "ValueSet",
      "type": "event"
    },
    {
      "inputs": [
        {
          "internalType": "address",
          "name": "newOwner",
          "type": "address"
        }
      ],
      "name": "changeOwner",
      "outputs": [],
      "stateMutability": "nonpayable",
      "type": "function"
    },
    {
      "inputs": [],
      "name": "myValue",
      "outputs": [
        {
          "internalType": "uint8",
          "name": "",
          "type": "uint8"
        }
      ],
      "stateMutability": "view",
      "type": "function"
    },
    {
      "inputs": [],
      "name": "increase",
      "outputs": [],
      "stateMutability": "nonpayable",
      "type": "function"
    },
    {
      "inputs": [],
      "name": "decrease",
      "outputs": [],
      "stateMutability": "nonpayable",
      "type": "function"
    },
    {
      "inputs": [
        {
          "internalType": "uint8",
          "name": "newValue",
          "type": "uint8"
        }
      ],
      "name": "setValue",
      "outputs": [],
      "stateMutability": "nonpayable",
      "type": "function"
    }
  ],
  "bytecode": "0x608060405234801561001057600080fd5b50336000806101000a81548173ffffffffffffffffffffffffffffffffffffffff021916908373ffffffffffffffffffffffffffffffffffffffff16021790555060008054906101000a900473ffffffffffffffffffffffffffffffffffffffff1673ffffffffffffffffffffffffffffffffffffffff16600073ffffffffffffffffffffffffffffffffffffffff167f342827c97908e5e2f71151c08502a66d44b6f758e3ac2f1de95f02eb95f0a73560405160405180910390a36107d8806100db6000396000f3fe608060405234801561001057600080fd5b50600436106100575760003560e01c806347f1aae71461005c5780634c111ff81461007a578063a6f9dae114610096578063d732d955146100b2578063e8927fbc146100bc575b600080fd5b6100646100c6565b6040516100719190610432565b60405180910390f35b610094600480360381019061008f919061047e565b6100d9565b005b6100b060048036038101906100ab9190610509565b6101cb565b005b6100ba610316565b005b6100c4610396565b005b600060149054906101000a900460ff1681565b60008054906101000a900473ffffffffffffffffffffffffffffffffffffffff1673ffffffffffffffffffffffffffffffffffffffff163373ffffffffffffffffffffffffffffffffffffffff1614610167576040517f08c379a000000000000000000000000000000000000000000000000000000000815260040161015e90610593565b60405180910390fd5b80600060146101000a81548160ff021916908360ff1602179055507f71fe9ce4c4d6bd0c345ef745f07bbc7a0f0db3826281f6e586a5649d06c30b5f600060149054906101000a900460ff166040516101c091906105ff565b60405180910390a150565b60008054906101000a900473ffffffffffffffffffffffffffffffffffffffff1673ffffffffffffffffffffffffffffffffffffffff163373ffffffffffffffffffffffffffffffffffffffff1614610259576040517f08c379a000000000000000000000000000000000000000000000000000000000815260040161025090610593565b60405180910390fd5b8073ffffffffffffffffffffffffffffffffffffffff1660008054906101000a900473ffffffffffffffffffffffffffffffffffffffff1673ffffffffffffffffffffffffffffffffffffffff167f342827c97908e5e2f71151c08502a66d44b6f758e3ac2f1de95f02eb95f0a73560405160405180910390a3806000806101000a81548173ffffffffffffffffffffffffffffffffffffffff021916908373ffffffffffffffffffffffffffffffffffffffff16021790555050565b6000601481819054906101000a900460ff16809291906103359061065c565b91906101000a81548160ff021916908360ff160217905550507f21631358afc61f309292f11fd94dfb9920e062af5a72ed779d02fc80cadaabe4600060149054906101000a900460ff1660405161038c91906106d1565b60405180910390a1565b6000601481819054906101000a900460ff16809291906103b5906106ff565b91906101000a81548160ff021916908360ff160217905550507f59144c42d01925194e77b7b7295ac04f0b740b4190cd10bb328eb8b8e0b58af6600060149054906101000a900460ff1660405161040c9190610774565b60405180910390a1565b600060ff82169050919050565b61042c81610416565b82525050565b60006020820190506104476000830184610423565b92915050565b600080fd5b61045b81610416565b811461046657600080fd5b50565b60008135905061047881610452565b92915050565b6000602082840312156104945761049361044d565b5b60006104a284828501610469565b91505092915050565b600073ffffffffffffffffffffffffffffffffffffffff82169050919050565b60006104d6826104ab565b9050919050565b6104e6816104cb565b81146104f157600080fd5b50565b600081359050610503816104dd565b92915050565b60006020828403121561051f5761051e61044d565b5b600061052d848285016104f4565b91505092915050565b600082825260208201905092915050565b7f43616c6c6572206973206e6f74206f776e657200000000000000000000000000600082015250565b600061057d601383610536565b915061058882610547565b602082019050919050565b600060208201905081810360008301526105ac81610570565b9050919050565b7f4d792076616c7565206973207365742077697468206e65772076616c75652e00600082015250565b60006105e9601f83610536565b91506105f4826105b3565b602082019050919050565b60006040820190506106146000830184610423565b8181036020830152610625816105dc565b905092915050565b7f4e487b7100000000000000000000000000000000000000000000000000000000600052601160045260246000fd5b600061066782610416565b91506000820361067a5761067961062d565b5b600182039050919050565b7f4d792076616c7565206973204465637265617365642062792031000000000000600082015250565b60006106bb601a83610536565b91506106c682610685565b602082019050919050565b60006040820190506106e66000830184610423565b81810360208301526106f7816106ae565b905092915050565b600061070a82610416565b915060ff820361071d5761071c61062d565b5b600182019050919050565b7f4d792076616c756520697320496e637265617365642062792031000000000000600082015250565b600061075e601a83610536565b915061076982610728565b602082019050919050565b60006040820190506107896000830184610423565b818103602083015261079a81610751565b90509291505056fea26469706673582212203e1d04f3fb3bc9bb7cf41918caa519b5f34ef56f943c47990992150737e2de8a64736f6c634300080d0033",
  "immutableReferences": {},
  "source": "// SPDX-License-Identifier: MIT\r\npragma solidity >= 0.8.0;\r\n\r\nimport \"./Ownable.sol\";\r\n\r\n// Ownable\r\ncontract HelloEventWithOwner is Ownable {\r\n    uint8 public myValue;\r\n    constructor() {\r\n        \r\n    }\r\n\r\n    event Increased(uint8 newValue, string message);\r\n    event Decreased(uint8 newValue, string message);\r\n    event ValueSet(uint8 newValue, string message);\r\n\r\n    function increase() public {\r\n        myValue++;\r\n        emit Increased(myValue, \"My value is Increased by 1\");\r\n\r\n    }\r\n\r\n    function decrease() public {\r\n        myValue--;\r\n        emit Decreased(myValue, \"My value is Decreased by 1\");\r\n\r\n    }\r\n\r\n    function setValue(uint8 newValue) public isOwner {\r\n        myValue = newValue;\r\n        emit ValueSet(myValue, \"My value is set with new value.\");\r\n    }\r\n}",
  "sourcePath": "C:\\Users\\mintc\\Desktop\\Solidity Project\\learning\\contracts\\HelloEventWithOwner.sol",
  "compiler": {
    "name": "solc",
    "version": "0.8.13+commit.abaa5c0e.Emscripten.clang"
  },
  "schemaVersion": "3.4.10",
  "updatedAt": "2022-10-18T04:10:37.226Z",
  "devdoc": {
    "kind": "dev",
    "methods": {},
    "version": 1
  },
  "userdoc": {
    "kind": "user",
    "methods": {},
    "version": 1
  }
}