{
  "contractName": "HelloEventWithOwner",
  "abi": [
    {
      "inputs": [],
      "stateMutability": "nonpayable",
      "type": "constructor"
    },
    {
      "anonymous": false,
      "inputs": [
        {
          "indexed": false,
          "internalType": "uint8",
          "name": "newValue",
          "type": "uint8"
        },
        {
          "indexed": false,
          "internalType": "string",
          "name": "message",
          "type": "string"
        }
      ],
      "name": "Decreased",
      "type": "event"
    },
    {
      "anonymous": false,
      "inputs": [
        {
          "indexed": false,
          "internalType": "uint8",
          "name": "newValue",
          "type": "uint8"
        },
        {
          "indexed": false,
          "internalType": "string",
          "name": "message",
          "type": "string"
        }
      ],
      "name": "Increased",
      "type": "event"
    },
    {
      "anonymous": false,
      "inputs": [
        {
          "indexed": true,
          "internalType": "address",
          "name": "oldOwner",
          "type": "address"
        },
        {
          "indexed": true,
          "internalType": "address",
          "name": "newOwner",
          "type": "address"
        }
      ],
      "name": "OwnerSet",
      "type": "event"
    },
    {
      "anonymous": false,
      "inputs": [
        {
          "indexed": false,
          "internalType": "uint8",
          "name": "newValue",
          "type": "uint8"
        },
        {
          "indexed": false,
          "internalType": "string",
          "name": "message",
          "type": "string"
        }
      ],
      "name": "ValueSet",
      "type": "event"
    },
    {
      "inputs": [
        {
          "internalType": "address",
          "name": "newOwner",
          "type": "address"
        }
      ],
      "name": "changeOwner",
      "outputs": [],
      "stateMutability": "nonpayable",
      "type": "function"
    },
    {
      "inputs": [],
      "name": "getOwner",
      "outputs": [
        {
          "internalType": "address",
          "name": "",
          "type": "address"
        }
      ],
      "stateMutability": "view",
      "type": "function"
    },
    {
      "inputs": [],
      "name": "myValue",
      "outputs": [
        {
          "internalType": "uint8",
          "name": "",
          "type": "uint8"
        }
      ],
      "stateMutability": "view",
      "type": "function"
    },
    {
      "inputs": [],
      "name": "increase",
      "outputs": [],
      "stateMutability": "nonpayable",
      "type": "function"
    },
    {
      "inputs": [],
      "name": "decrease",
      "outputs": [],
      "stateMutability": "nonpayable",
      "type": "function"
    },
    {
      "inputs": [
        {
          "internalType": "uint8",
          "name": "newValue",
          "type": "uint8"
        }
      ],
      "name": "setValue",
      "outputs": [],
      "stateMutability": "nonpayable",
      "type": "function"
    }
  ],
  "bytecode": "0x608060405234801561001057600080fd5b50336000806101000a81548173ffffffffffffffffffffffffffffffffffffffff021916908373ffffffffffffffffffffffffffffffffffffffff16021790555060008054906101000a900473ffffffffffffffffffffffffffffffffffffffff1673ffffffffffffffffffffffffffffffffffffffff16600073ffffffffffffffffffffffffffffffffffffffff167f342827c97908e5e2f71151c08502a66d44b6f758e3ac2f1de95f02eb95f0a73560405160405180910390a3610854806100db6000396000f3fe608060405234801561001057600080fd5b50600436106100625760003560e01c806347f1aae7146100675780634c111ff814610085578063893d20e8146100a1578063a6f9dae1146100bf578063d732d955146100db578063e8927fbc146100e5575b600080fd5b61006f6100ef565b60405161007c9190610484565b60405180910390f35b61009f600480360381019061009a91906104d0565b610102565b005b6100a96101f4565b6040516100b6919061053e565b60405180910390f35b6100d960048036038101906100d49190610585565b61021d565b005b6100e3610368565b005b6100ed6103e8565b005b600060149054906101000a900460ff1681565b60008054906101000a900473ffffffffffffffffffffffffffffffffffffffff1673ffffffffffffffffffffffffffffffffffffffff163373ffffffffffffffffffffffffffffffffffffffff1614610190576040517f08c379a00000000000000000000000000000000000000000000000000000000081526004016101879061060f565b60405180910390fd5b80600060146101000a81548160ff021916908360ff1602179055507f71fe9ce4c4d6bd0c345ef745f07bbc7a0f0db3826281f6e586a5649d06c30b5f600060149054906101000a900460ff166040516101e9919061067b565b60405180910390a150565b60008060009054906101000a900473ffffffffffffffffffffffffffffffffffffffff16905090565b60008054906101000a900473ffffffffffffffffffffffffffffffffffffffff1673ffffffffffffffffffffffffffffffffffffffff163373ffffffffffffffffffffffffffffffffffffffff16146102ab576040517f08c379a00000000000000000000000000000000000000000000000000000000081526004016102a29061060f565b60405180910390fd5b8073ffffffffffffffffffffffffffffffffffffffff1660008054906101000a900473ffffffffffffffffffffffffffffffffffffffff1673ffffffffffffffffffffffffffffffffffffffff167f342827c97908e5e2f71151c08502a66d44b6f758e3ac2f1de95f02eb95f0a73560405160405180910390a3806000806101000a81548173ffffffffffffffffffffffffffffffffffffffff021916908373ffffffffffffffffffffffffffffffffffffffff16021790555050565b6000601481819054906101000a900460ff1680929190610387906106d8565b91906101000a81548160ff021916908360ff160217905550507f21631358afc61f309292f11fd94dfb9920e062af5a72ed779d02fc80cadaabe4600060149054906101000a900460ff166040516103de919061074d565b60405180910390a1565b6000601481819054906101000a900460ff16809291906104079061077b565b91906101000a81548160ff021916908360ff160217905550507f59144c42d01925194e77b7b7295ac04f0b740b4190cd10bb328eb8b8e0b58af6600060149054906101000a900460ff1660405161045e91906107f0565b60405180910390a1565b600060ff82169050919050565b61047e81610468565b82525050565b60006020820190506104996000830184610475565b92915050565b600080fd5b6104ad81610468565b81146104b857600080fd5b50565b6000813590506104ca816104a4565b92915050565b6000602082840312156104e6576104e561049f565b5b60006104f4848285016104bb565b91505092915050565b600073ffffffffffffffffffffffffffffffffffffffff82169050919050565b6000610528826104fd565b9050919050565b6105388161051d565b82525050565b6000602082019050610553600083018461052f565b92915050565b6105628161051d565b811461056d57600080fd5b50565b60008135905061057f81610559565b92915050565b60006020828403121561059b5761059a61049f565b5b60006105a984828501610570565b91505092915050565b600082825260208201905092915050565b7f43616c6c6572206973206e6f74206f776e657200000000000000000000000000600082015250565b60006105f96013836105b2565b9150610604826105c3565b602082019050919050565b60006020820190508181036000830152610628816105ec565b9050919050565b7f4d792076616c7565206973207365742077697468206e65772076616c75652e00600082015250565b6000610665601f836105b2565b91506106708261062f565b602082019050919050565b60006040820190506106906000830184610475565b81810360208301526106a181610658565b905092915050565b7f4e487b7100000000000000000000000000000000000000000000000000000000600052601160045260246000fd5b60006106e382610468565b9150600082036106f6576106f56106a9565b5b600182039050919050565b7f4d792076616c7565206973204465637265617365642062792031000000000000600082015250565b6000610737601a836105b2565b915061074282610701565b602082019050919050565b60006040820190506107626000830184610475565b81810360208301526107738161072a565b905092915050565b600061078682610468565b915060ff8203610799576107986106a9565b5b600182019050919050565b7f4d792076616c756520697320496e637265617365642062792031000000000000600082015250565b60006107da601a836105b2565b91506107e5826107a4565b602082019050919050565b60006040820190506108056000830184610475565b8181036020830152610816816107cd565b90509291505056fea26469706673582212203d76c12c239a131d2e90366616c273c004ac2a4c6456153f66d31bb1df9919e764736f6c634300080d0033",
  "immutableReferences": {},
  "source": "// SPDX-License-Identifier: MIT\r\npragma solidity >= 0.8.0;\r\n\r\nimport \"./Ownable.sol\";\r\n\r\n// Ownable\r\ncontract HelloEventWithOwner is Ownable {\r\n    uint8 public myValue;\r\n    constructor() {\r\n        \r\n    }\r\n\r\n    event Increased(uint8 newValue, string message);\r\n    event Decreased(uint8 newValue, string message);\r\n    event ValueSet(uint8 newValue, string message);\r\n\r\n    function increase() public {\r\n        myValue++;\r\n        emit Increased(myValue, \"My value is Increased by 1\");\r\n\r\n    }\r\n\r\n    function decrease() public {\r\n        myValue--;\r\n        emit Decreased(myValue, \"My value is Decreased by 1\");\r\n\r\n    }\r\n\r\n    function setValue(uint8 newValue) public isOwner {\r\n        myValue = newValue;\r\n        emit ValueSet(myValue, \"My value is set with new value.\");\r\n    }\r\n}",
  "sourcePath": "C:\\Users\\mintc\\Documents\\GitHub\\DPU-solidity\\contracts\\HelloEventWithOwner.sol",
  "compiler": {
    "name": "solc",
    "version": "0.8.13+commit.abaa5c0e.Emscripten.clang"
  },
  "schemaVersion": "3.4.10",
  "updatedAt": "2022-11-15T04:41:13.947Z",
  "devdoc": {
    "kind": "dev",
    "methods": {},
    "version": 1
  },
  "userdoc": {
    "kind": "user",
    "methods": {},
    "version": 1
  }
}