{
  "contractName": "HelloEvent",
  "abi": [
    {
      "inputs": [],
      "stateMutability": "nonpayable",
      "type": "constructor"
    },
    {
      "anonymous": false,
      "inputs": [
        {
          "indexed": false,
          "internalType": "uint8",
          "name": "newValue",
          "type": "uint8"
        },
        {
          "indexed": false,
          "internalType": "string",
          "name": "message",
          "type": "string"
        }
      ],
      "name": "Decreased",
      "type": "event"
    },
    {
      "anonymous": false,
      "inputs": [
        {
          "indexed": false,
          "internalType": "uint8",
          "name": "newValue",
          "type": "uint8"
        },
        {
          "indexed": false,
          "internalType": "string",
          "name": "message",
          "type": "string"
        }
      ],
      "name": "Increased",
      "type": "event"
    },
    {
      "anonymous": false,
      "inputs": [
        {
          "indexed": false,
          "internalType": "uint8",
          "name": "newValue",
          "type": "uint8"
        },
        {
          "indexed": false,
          "internalType": "string",
          "name": "message",
          "type": "string"
        }
      ],
      "name": "ValueSet",
      "type": "event"
    },
    {
      "inputs": [],
      "name": "myValue",
      "outputs": [
        {
          "internalType": "uint8",
          "name": "",
          "type": "uint8"
        }
      ],
      "stateMutability": "view",
      "type": "function"
    },
    {
      "inputs": [],
      "name": "increase",
      "outputs": [],
      "stateMutability": "nonpayable",
      "type": "function"
    },
    {
      "inputs": [],
      "name": "decrease",
      "outputs": [],
      "stateMutability": "nonpayable",
      "type": "function"
    },
    {
      "inputs": [
        {
          "internalType": "uint8",
          "name": "newValue",
          "type": "uint8"
        }
      ],
      "name": "setValue",
      "outputs": [],
      "stateMutability": "nonpayable",
      "type": "function"
    }
  ],
  "bytecode": "0x608060405234801561001057600080fd5b506104d6806100206000396000f3fe608060405234801561001057600080fd5b506004361061004c5760003560e01c806347f1aae7146100515780634c111ff81461006f578063d732d9551461008b578063e8927fbc14610095575b600080fd5b61005961009f565b6040516100669190610227565b60405180910390f35b61008960048036038101906100849190610273565b6100b0565b005b610093610111565b005b61009d61018e565b005b60008054906101000a900460ff1681565b806000806101000a81548160ff021916908360ff1602179055507f71fe9ce4c4d6bd0c345ef745f07bbc7a0f0db3826281f6e586a5649d06c30b5f60008054906101000a900460ff1660405161010691906102fd565b60405180910390a150565b60008081819054906101000a900460ff168092919061012f9061035a565b91906101000a81548160ff021916908360ff160217905550507f21631358afc61f309292f11fd94dfb9920e062af5a72ed779d02fc80cadaabe460008054906101000a900460ff1660405161018491906103cf565b60405180910390a1565b60008081819054906101000a900460ff16809291906101ac906103fd565b91906101000a81548160ff021916908360ff160217905550507f59144c42d01925194e77b7b7295ac04f0b740b4190cd10bb328eb8b8e0b58af660008054906101000a900460ff166040516102019190610472565b60405180910390a1565b600060ff82169050919050565b6102218161020b565b82525050565b600060208201905061023c6000830184610218565b92915050565b600080fd5b6102508161020b565b811461025b57600080fd5b50565b60008135905061026d81610247565b92915050565b60006020828403121561028957610288610242565b5b60006102978482850161025e565b91505092915050565b600082825260208201905092915050565b7f4d792076616c7565206973207365742077697468206e65772076616c75652e00600082015250565b60006102e7601f836102a0565b91506102f2826102b1565b602082019050919050565b60006040820190506103126000830184610218565b8181036020830152610323816102da565b905092915050565b7f4e487b7100000000000000000000000000000000000000000000000000000000600052601160045260246000fd5b60006103658261020b565b9150600082036103785761037761032b565b5b600182039050919050565b7f4d792076616c7565206973204465637265617365642062792031000000000000600082015250565b60006103b9601a836102a0565b91506103c482610383565b602082019050919050565b60006040820190506103e46000830184610218565b81810360208301526103f5816103ac565b905092915050565b60006104088261020b565b915060ff820361041b5761041a61032b565b5b600182019050919050565b7f4d792076616c756520697320496e637265617365642062792031000000000000600082015250565b600061045c601a836102a0565b915061046782610426565b602082019050919050565b60006040820190506104876000830184610218565b81810360208301526104988161044f565b90509291505056fea2646970667358221220960d8455a2ae7118124bcbcb0d2b0be9dfcf48588958858b93d2364b4963c0bb64736f6c634300080d0033",
  "immutableReferences": {},
  "source": "// SPDX-License-Identifier: MIT\r\npragma solidity >= 0.8.0;\r\n\r\ncontract HelloEvent {\r\n    uint8 public myValue;\r\n    constructor() {\r\n        \r\n    }\r\n\r\n    event Increased(uint8 newValue, string message);\r\n    event Decreased(uint8 newValue, string message);\r\n    event ValueSet(uint8 newValue, string message);\r\n\r\n    function increase() public {\r\n        myValue++;\r\n        emit Increased(myValue, \"My value is Increased by 1\");\r\n\r\n    }\r\n\r\n    function decrease() public {\r\n        myValue--;\r\n        emit Decreased(myValue, \"My value is Decreased by 1\");\r\n\r\n    }\r\n\r\n    function setValue(uint8 newValue) public {\r\n        myValue = newValue;\r\n        emit ValueSet(myValue, \"My value is set with new value.\");\r\n    }\r\n}",
  "sourcePath": "C:\\Users\\mintc\\Documents\\GitHub\\DPU-solidity\\contracts\\HelloEvent.sol",
  "compiler": {
    "name": "solc",
    "version": "0.8.13+commit.abaa5c0e.Emscripten.clang"
  },
  "schemaVersion": "3.4.10",
  "updatedAt": "2022-11-21T05:14:46.728Z",
  "devdoc": {
    "kind": "dev",
    "methods": {},
    "version": 1
  },
  "userdoc": {
    "kind": "user",
    "methods": {},
    "version": 1
  }
}