{
  "contractName": "SimpleLoan",
  "abi": [
    {
      "inputs": [],
      "stateMutability": "nonpayable",
      "type": "constructor"
    },
    {
      "anonymous": false,
      "inputs": [
        {
          "indexed": false,
          "internalType": "uint256",
          "name": "time",
          "type": "uint256"
        },
        {
          "indexed": false,
          "internalType": "uint256",
          "name": "amount",
          "type": "uint256"
        },
        {
          "indexed": false,
          "internalType": "uint256",
          "name": "interest",
          "type": "uint256"
        },
        {
          "indexed": false,
          "internalType": "address",
          "name": "borrower",
          "type": "address"
        }
      ],
      "name": "Borrwed",
      "type": "event"
    },
    {
      "anonymous": false,
      "inputs": [
        {
          "indexed": false,
          "internalType": "uint256",
          "name": "time",
          "type": "uint256"
        }
      ],
      "name": "ClosedDown",
      "type": "event"
    },
    {
      "anonymous": false,
      "inputs": [
        {
          "indexed": false,
          "internalType": "uint256",
          "name": "time",
          "type": "uint256"
        },
        {
          "indexed": false,
          "internalType": "uint256",
          "name": "amout",
          "type": "uint256"
        },
        {
          "indexed": false,
          "internalType": "uint256",
          "name": "balance",
          "type": "uint256"
        }
      ],
      "name": "Deposited",
      "type": "event"
    },
    {
      "anonymous": false,
      "inputs": [
        {
          "indexed": false,
          "internalType": "uint256",
          "name": "time",
          "type": "uint256"
        },
        {
          "indexed": false,
          "internalType": "uint256",
          "name": "newRate",
          "type": "uint256"
        }
      ],
      "name": "InterestRateChanged",
      "type": "event"
    },
    {
      "anonymous": false,
      "inputs": [
        {
          "indexed": false,
          "internalType": "uint256",
          "name": "time",
          "type": "uint256"
        },
        {
          "indexed": false,
          "internalType": "uint256",
          "name": "amount",
          "type": "uint256"
        },
        {
          "indexed": false,
          "internalType": "uint256",
          "name": "remaining",
          "type": "uint256"
        },
        {
          "indexed": false,
          "internalType": "address",
          "name": "borrower",
          "type": "address"
        },
        {
          "indexed": false,
          "internalType": "uint256",
          "name": "period",
          "type": "uint256"
        }
      ],
      "name": "LatePayback",
      "type": "event"
    },
    {
      "anonymous": false,
      "inputs": [
        {
          "indexed": false,
          "internalType": "uint256",
          "name": "time",
          "type": "uint256"
        },
        {
          "indexed": false,
          "internalType": "uint256",
          "name": "amount",
          "type": "uint256"
        },
        {
          "indexed": false,
          "internalType": "uint256",
          "name": "remaining",
          "type": "uint256"
        },
        {
          "indexed": false,
          "internalType": "address",
          "name": "borrower",
          "type": "address"
        }
      ],
      "name": "Paybacked",
      "type": "event"
    },
    {
      "anonymous": false,
      "inputs": [
        {
          "indexed": false,
          "internalType": "uint256",
          "name": "time",
          "type": "uint256"
        },
        {
          "indexed": false,
          "internalType": "uint256",
          "name": "amount",
          "type": "uint256"
        }
      ],
      "name": "Withdraw",
      "type": "event"
    },
    {
      "anonymous": false,
      "inputs": [
        {
          "indexed": false,
          "internalType": "uint256",
          "name": "time",
          "type": "uint256"
        },
        {
          "indexed": false,
          "internalType": "address",
          "name": "borrower",
          "type": "address"
        }
      ],
      "name": "deptClreared",
      "type": "event"
    },
    {
      "inputs": [],
      "name": "DEFAULT_INTEREST_DEMONIRATOR",
      "outputs": [
        {
          "internalType": "uint256",
          "name": "",
          "type": "uint256"
        }
      ],
      "stateMutability": "view",
      "type": "function",
      "constant": true
    },
    {
      "inputs": [],
      "name": "DEFAULT_INTEREST_NUMERATOR",
      "outputs": [
        {
          "internalType": "uint256",
          "name": "",
          "type": "uint256"
        }
      ],
      "stateMutability": "view",
      "type": "function",
      "constant": true
    },
    {
      "inputs": [],
      "name": "PAYBACK_PERIOD",
      "outputs": [
        {
          "internalType": "uint256",
          "name": "",
          "type": "uint256"
        }
      ],
      "stateMutability": "view",
      "type": "function",
      "constant": true
    },
    {
      "inputs": [
        {
          "internalType": "uint256",
          "name": "",
          "type": "uint256"
        }
      ],
      "name": "borrowers",
      "outputs": [
        {
          "internalType": "address",
          "name": "",
          "type": "address"
        }
      ],
      "stateMutability": "view",
      "type": "function",
      "constant": true
    },
    {
      "inputs": [
        {
          "internalType": "address",
          "name": "",
          "type": "address"
        }
      ],
      "name": "debts",
      "outputs": [
        {
          "internalType": "uint256",
          "name": "balance",
          "type": "uint256"
        },
        {
          "internalType": "uint256",
          "name": "lastBorrowed",
          "type": "uint256"
        }
      ],
      "stateMutability": "view",
      "type": "function",
      "constant": true
    },
    {
      "inputs": [],
      "name": "interestRateDenominator",
      "outputs": [
        {
          "internalType": "uint256",
          "name": "",
          "type": "uint256"
        }
      ],
      "stateMutability": "view",
      "type": "function",
      "constant": true
    },
    {
      "inputs": [],
      "name": "interestRateNumberator",
      "outputs": [
        {
          "internalType": "uint256",
          "name": "",
          "type": "uint256"
        }
      ],
      "stateMutability": "view",
      "type": "function",
      "constant": true
    },
    {
      "inputs": [],
      "name": "deposit",
      "outputs": [],
      "stateMutability": "payable",
      "type": "function",
      "payable": true
    },
    {
      "inputs": [
        {
          "internalType": "uint256",
          "name": "numerator",
          "type": "uint256"
        }
      ],
      "name": "setInterestRate",
      "outputs": [],
      "stateMutability": "nonpayable",
      "type": "function"
    },
    {
      "inputs": [
        {
          "internalType": "uint256",
          "name": "amount",
          "type": "uint256"
        }
      ],
      "name": "borrow",
      "outputs": [],
      "stateMutability": "nonpayable",
      "type": "function"
    },
    {
      "inputs": [],
      "name": "payback",
      "outputs": [],
      "stateMutability": "payable",
      "type": "function",
      "payable": true
    },
    {
      "inputs": [
        {
          "internalType": "uint256",
          "name": "amount",
          "type": "uint256"
        }
      ],
      "name": "withdraw",
      "outputs": [],
      "stateMutability": "nonpayable",
      "type": "function"
    },
    {
      "inputs": [],
      "name": "closeDown",
      "outputs": [],
      "stateMutability": "nonpayable",
      "type": "function"
    }
  ],
  "bytecode": "0x608060405234801561001057600080fd5b50336000806101000a81548173ffffffffffffffffffffffffffffffffffffffff021916908373ffffffffffffffffffffffffffffffffffffffff1602179055506001600281905550600a6003819055506001600560006101000a81548160ff0219169083151502179055506119a48061008b6000396000f3fe6080604052600436106100c25760003560e01c80635cb0a2151161007f578063854bec8711610059578063854bec871461025757806386280ef014610261578063c5ebeaec1461028c578063d0e30db0146102b5576100c2565b80635cb0a215146101c65780635f84f302146101f15780637924d93f1461021a576100c2565b80631c00d1c2146100c75780632e1a7d4d146100f25780632ecd4e7d1461011b57806349445faa1461015957806355ffe2a0146101845780635a4362e5146101af575b600080fd5b3480156100d357600080fd5b506100dc6102bf565b6040516100e9919061120a565b60405180910390f35b3480156100fe57600080fd5b5061011960048036038101906101149190611256565b6102c6565b005b34801561012757600080fd5b50610142600480360381019061013d91906112e1565b610489565b60405161015092919061130e565b60405180910390f35b34801561016557600080fd5b5061016e6104ad565b60405161017b919061120a565b60405180910390f35b34801561019057600080fd5b506101996104b3565b6040516101a6919061120a565b60405180910390f35b3480156101bb57600080fd5b506101c46104b9565b005b3480156101d257600080fd5b506101db610669565b6040516101e8919061120a565b60405180910390f35b3480156101fd57600080fd5b5061021860048036038101906102139190611256565b61066e565b005b34801561022657600080fd5b50610241600480360381019061023c9190611256565b6107d9565b60405161024e9190611346565b60405180910390f35b61025f610818565b005b34801561026d57600080fd5b50610276610d3f565b604051610283919061120a565b60405180910390f35b34801561029857600080fd5b506102b360048036038101906102ae9190611256565b610d44565b005b6102bd6110d7565b005b62093a8081565b60008054906101000a900473ffffffffffffffffffffffffffffffffffffffff1673ffffffffffffffffffffffffffffffffffffffff163373ffffffffffffffffffffffffffffffffffffffff1614610354576040517f08c379a000000000000000000000000000000000000000000000000000000000815260040161034b906113be565b60405180910390fd5b600560009054906101000a900460ff166103a3576040517f08c379a000000000000000000000000000000000000000000000000000000000815260040161039a9061142a565b60405180910390fd5b478111156103e6576040517f08c379a00000000000000000000000000000000000000000000000000000000081526004016103dd90611496565b60405180910390fd5b60008054906101000a900473ffffffffffffffffffffffffffffffffffffffff1673ffffffffffffffffffffffffffffffffffffffff166108fc829081150290604051600060405180830381858888f1935050505015801561044c573d6000803e3d6000fd5b507f56ca301a9219608c91e7bcee90e083c19671d2cdcc96752c7af291cee5f9c8c8428260405161047e92919061130e565b60405180910390a150565b60016020528060005260406000206000915090508060000154908060010154905082565b60025481565b60035481565b60008054906101000a900473ffffffffffffffffffffffffffffffffffffffff1673ffffffffffffffffffffffffffffffffffffffff163373ffffffffffffffffffffffffffffffffffffffff1614610547576040517f08c379a000000000000000000000000000000000000000000000000000000000815260040161053e906113be565b60405180910390fd5b600560009054906101000a900460ff16610596576040517f08c379a000000000000000000000000000000000000000000000000000000000815260040161058d9061142a565b60405180910390fd5b6000600480549050146105de576040517f08c379a00000000000000000000000000000000000000000000000000000000081526004016105d590611528565b60405180910390fd5b6000600560006101000a81548160ff0219169083151502179055507f445f40d7036a39a53d5b99242bad06cc83dedd86210f42b498d96bd0926ef4a842604051610628919061120a565b60405180910390a160008054906101000a900473ffffffffffffffffffffffffffffffffffffffff1673ffffffffffffffffffffffffffffffffffffffff16ff5b600181565b60008054906101000a900473ffffffffffffffffffffffffffffffffffffffff1673ffffffffffffffffffffffffffffffffffffffff163373ffffffffffffffffffffffffffffffffffffffff16146106fc576040517f08c379a00000000000000000000000000000000000000000000000000000000081526004016106f3906113be565b60405180910390fd5b600560009054906101000a900460ff1661074b576040517f08c379a00000000000000000000000000000000000000000000000000000000081526004016107429061142a565b60405180910390fd5b6000811161078e576040517f08c379a000000000000000000000000000000000000000000000000000000000815260040161078590611594565b60405180910390fd5b8060038190555060646002819055507ff93ce1b2e2cb74b524760dff1842e28b944e9c40627c07348a36c404be739c0242826040516107ce92919061130e565b60405180910390a150565b600481815481106107e957600080fd5b906000526020600020016000915054906101000a900473ffffffffffffffffffffffffffffffffffffffff1681565b60008054906101000a900473ffffffffffffffffffffffffffffffffffffffff1673ffffffffffffffffffffffffffffffffffffffff163373ffffffffffffffffffffffffffffffffffffffff16036108a6576040517f08c379a000000000000000000000000000000000000000000000000000000000815260040161089d90611600565b60405180910390fd5b600560009054906101000a900460ff166108f5576040517f08c379a00000000000000000000000000000000000000000000000000000000081526004016108ec9061142a565b60405180910390fd5b600160003373ffffffffffffffffffffffffffffffffffffffff1673ffffffffffffffffffffffffffffffffffffffff1681526020019081526020016000206000015434111561097a576040517f08c379a00000000000000000000000000000000000000000000000000000000081526004016109719061166c565b60405180910390fd5b34600160003373ffffffffffffffffffffffffffffffffffffffff1673ffffffffffffffffffffffffffffffffffffffff16815260200190815260200160002060000160008282546109cc91906116bb565b9250508190555062093a80600160003373ffffffffffffffffffffffffffffffffffffffff1673ffffffffffffffffffffffffffffffffffffffff1681526020019081526020016000206001015442610a2591906116bb565b1015610aaf577f01cc4a5b4b7296e86c48d414286509d7cd8c31131f816dcd54164066421fd36f4234600160003373ffffffffffffffffffffffffffffffffffffffff1673ffffffffffffffffffffffffffffffffffffffff1681526020019081526020016000206000015433604051610aa294939291906116ef565b60405180910390a1610b8c565b7fece349fd3256bf07228c22858d5c2f2f187f8b1a9fe22feacc94258dda25183f4234600160003373ffffffffffffffffffffffffffffffffffffffff1673ffffffffffffffffffffffffffffffffffffffff168152602001908152602001600020600001543362093a80600160003373ffffffffffffffffffffffffffffffffffffffff1673ffffffffffffffffffffffffffffffffffffffff1681526020019081526020016000206001015442610b6891906116bb565b610b7291906116bb565b604051610b83959493929190611734565b60405180910390a15b6000600160003373ffffffffffffffffffffffffffffffffffffffff1673ffffffffffffffffffffffffffffffffffffffff1681526020019081526020016000206000015403610d3d5760005b600480549050811015610d3b573373ffffffffffffffffffffffffffffffffffffffff1660048281548110610c1157610c10611787565b5b9060005260206000200160009054906101000a900473ffffffffffffffffffffffffffffffffffffffff1673ffffffffffffffffffffffffffffffffffffffff1603610d285760048181548110610c6b57610c6a611787565b5b9060005260206000200160006101000a81549073ffffffffffffffffffffffffffffffffffffffff0219169055600160003373ffffffffffffffffffffffffffffffffffffffff1673ffffffffffffffffffffffffffffffffffffffff168152602001908152602001600020600080820160009055600182016000905550507f97f1c33d1a9e456dc505ffc7b617c5471a1ede71a1f26559e27b39149a3f0e614233604051610d1b9291906117b6565b60405180910390a1610d3b565b8080610d33906117df565b915050610bd9565b505b565b600a81565b60008054906101000a900473ffffffffffffffffffffffffffffffffffffffff1673ffffffffffffffffffffffffffffffffffffffff163373ffffffffffffffffffffffffffffffffffffffff1603610dd2576040517f08c379a0000000000000000000000000000000000000000000000000000000008152600401610dc990611600565b60405180910390fd5b600560009054906101000a900460ff16610e21576040517f08c379a0000000000000000000000000000000000000000000000000000000008152600401610e189061142a565b60405180910390fd5b80471015610e64576040517f08c379a0000000000000000000000000000000000000000000000000000000008152600401610e5b90611496565b60405180910390fd5b600060035460025483610e779190611827565b610e8191906118b0565b905060008183610e9191906118e1565b90506000600160003373ffffffffffffffffffffffffffffffffffffffff1673ffffffffffffffffffffffffffffffffffffffff1681526020019081526020016000206000015403610fae576004339080600181540180825580915050600190039060005260206000200160009091909190916101000a81548173ffffffffffffffffffffffffffffffffffffffff021916908373ffffffffffffffffffffffffffffffffffffffff1602179055506040518060400160405280600081526020016000815250600160003373ffffffffffffffffffffffffffffffffffffffff1673ffffffffffffffffffffffffffffffffffffffff16815260200190815260200160002060008201518160000155602082015181600101559050505b80600160003373ffffffffffffffffffffffffffffffffffffffff1673ffffffffffffffffffffffffffffffffffffffff168152602001908152602001600020600001600082825461100091906118e1565b9250508190555042600160003373ffffffffffffffffffffffffffffffffffffffff1673ffffffffffffffffffffffffffffffffffffffff168152602001908152602001600020600101819055503373ffffffffffffffffffffffffffffffffffffffff166108fc849081150290604051600060405180830381858888f19350505050158015611094573d6000803e3d6000fd5b507fb472f2f9a210ccf31efa616d36ada80b62475a44d4d87a40dbea6ea521c13804428484336040516110ca94939291906116ef565b60405180910390a1505050565b60008054906101000a900473ffffffffffffffffffffffffffffffffffffffff1673ffffffffffffffffffffffffffffffffffffffff163373ffffffffffffffffffffffffffffffffffffffff1614611165576040517f08c379a000000000000000000000000000000000000000000000000000000000815260040161115c906113be565b60405180910390fd5b600560009054906101000a900460ff166111b4576040517f08c379a00000000000000000000000000000000000000000000000000000000081526004016111ab9061142a565b60405180910390fd5b7f1ca606821992e3b34613b5b29c0bbade3a907b2969d7f9f2927f726fa4baccfb4234476040516111e793929190611937565b60405180910390a1565b6000819050919050565b611204816111f1565b82525050565b600060208201905061121f60008301846111fb565b92915050565b600080fd5b611233816111f1565b811461123e57600080fd5b50565b6000813590506112508161122a565b92915050565b60006020828403121561126c5761126b611225565b5b600061127a84828501611241565b91505092915050565b600073ffffffffffffffffffffffffffffffffffffffff82169050919050565b60006112ae82611283565b9050919050565b6112be816112a3565b81146112c957600080fd5b50565b6000813590506112db816112b5565b92915050565b6000602082840312156112f7576112f6611225565b5b6000611305848285016112cc565b91505092915050565b600060408201905061132360008301856111fb565b61133060208301846111fb565b9392505050565b611340816112a3565b82525050565b600060208201905061135b6000830184611337565b92915050565b600082825260208201905092915050565b7f4f6e6c79206f776e657220616c6c6f7765640000000000000000000000000000600082015250565b60006113a8601283611361565b91506113b382611372565b602082019050919050565b600060208201905081810360008301526113d78161139b565b9050919050565b7f436f6e7472616374206973206e6f742061637469766500000000000000000000600082015250565b6000611414601683611361565b915061141f826113de565b602082019050919050565b6000602082019050818103600083015261144381611407565b9050919050565b7f4e6f7420656e6f7567682062616c616e63650000000000000000000000000000600082015250565b6000611480601283611361565b915061148b8261144a565b602082019050919050565b600060208201905081810360008301526114af81611473565b9050919050565b7f43616e206e6f7420636c6f736520647565206578697374696e6720626f72726f60008201527f7765727300000000000000000000000000000000000000000000000000000000602082015250565b6000611512602483611361565b915061151d826114b6565b604082019050919050565b6000602082019050818103600083015261154181611505565b9050919050565b7f496e76616c696420696e74657265737420726174650000000000000000000000600082015250565b600061157e601583611361565b915061158982611548565b602082019050919050565b600060208201905081810360008301526115ad81611571565b9050919050565b7f4f6e6c79206f776e6572206e6f7420616c6c6f77656400000000000000000000600082015250565b60006115ea601683611361565b91506115f5826115b4565b602082019050919050565b60006020820190508181036000830152611619816115dd565b9050919050565b7f4f76657270616964206e6f7420616c6c6f776564000000000000000000000000600082015250565b6000611656601483611361565b915061166182611620565b602082019050919050565b6000602082019050818103600083015261168581611649565b9050919050565b7f4e487b7100000000000000000000000000000000000000000000000000000000600052601160045260246000fd5b60006116c6826111f1565b91506116d1836111f1565b9250828210156116e4576116e361168c565b5b828203905092915050565b600060808201905061170460008301876111fb565b61171160208301866111fb565b61171e60408301856111fb565b61172b6060830184611337565b95945050505050565b600060a08201905061174960008301886111fb565b61175660208301876111fb565b61176360408301866111fb565b6117706060830185611337565b61177d60808301846111fb565b9695505050505050565b7f4e487b7100000000000000000000000000000000000000000000000000000000600052603260045260246000fd5b60006040820190506117cb60008301856111fb565b6117d86020830184611337565b9392505050565b60006117ea826111f1565b91507fffffffffffffffffffffffffffffffffffffffffffffffffffffffffffffffff820361181c5761181b61168c565b5b600182019050919050565b6000611832826111f1565b915061183d836111f1565b9250817fffffffffffffffffffffffffffffffffffffffffffffffffffffffffffffffff04831182151516156118765761187561168c565b5b828202905092915050565b7f4e487b7100000000000000000000000000000000000000000000000000000000600052601260045260246000fd5b60006118bb826111f1565b91506118c6836111f1565b9250826118d6576118d5611881565b5b828204905092915050565b60006118ec826111f1565b91506118f7836111f1565b9250827fffffffffffffffffffffffffffffffffffffffffffffffffffffffffffffffff0382111561192c5761192b61168c565b5b828201905092915050565b600060608201905061194c60008301866111fb565b61195960208301856111fb565b61196660408301846111fb565b94935050505056fea264697066735822122088c9b265dea7a2d17309f1af1cbd75b857007c7b7e75bccd225978dfd8e1c5f064736f6c634300080d0033",
  "immutableReferences": {},
  "source": "// SPDX-License-Identifier: SEE LICENSE IN LICENSE\r\npragma solidity  >=0.8.0;\r\n\r\ncontract SimpleLoan {\r\n    // payable \r\n    address payable owner;\r\n\r\n    // \r\n    struct DebInfo {\r\n        uint balance; // \r\n        uint lastBorrowed; //  (block.timestamp)\r\n    }\r\n\r\n    // key: val | address: id , DebInfo \r\n    mapping(address => DebInfo) public debts; // Debt tables\r\n    // solidity  \r\n    // \r\n    uint public interestRateNumberator;\r\n\r\n    // \r\n    uint public interestRateDenominator;\r\n\r\n    uint public constant DEFAULT_INTEREST_NUMERATOR = 1;\r\n    uint public constant DEFAULT_INTEREST_DEMONIRATOR = 10;\r\n    uint public constant PAYBACK_PERIOD = 60 * 60 * 24 * 7; // , , , \r\n\r\n    // \r\n    address[] public borrowers; \r\n    //  contract\r\n    bool active;\r\n\r\n    constructor() {\r\n        // msg  contract\r\n        owner = payable(msg.sender);\r\n        interestRateNumberator = DEFAULT_INTEREST_NUMERATOR;\r\n        interestRateDenominator = DEFAULT_INTEREST_DEMONIRATOR;\r\n\r\n        //  contract \r\n        active = true;\r\n    }\r\n\r\n    // \r\n    modifier onlyOwner {\r\n        //  require \r\n        require(msg.sender == owner, \"Only owner allowed\");\r\n        _; //\r\n    }\r\n\r\n    modifier notAnOwner {\r\n        require(msg.sender != owner, \"Only owner not allowed\");\r\n        _;\r\n    }\r\n\r\n    modifier whenActive {\r\n        require(active, \"Contract is not active\");\r\n        _;\r\n    }\r\n\r\n    // event  log\r\n    event Deposited(uint time, uint amout, uint balance);\r\n    //  payable\r\n    //  owner  contract  active\r\n    function deposit() public payable onlyOwner whenActive {\r\n        // ( block,  msg,  balance  contract  this  address  balance)\r\n        emit Deposited(block.timestamp, msg.value, address(this).balance);\r\n    }\r\n\r\n    // log rate\r\n    event InterestRateChanged(uint time, uint newRate);\r\n    //  0 - 100\r\n    function setInterestRate(uint numerator) public onlyOwner whenActive {\r\n        require(numerator > 0, \"Invalid interest rate\");\r\n        interestRateDenominator = numerator;\r\n        interestRateNumberator = 100;\r\n\r\n        //example 7 / 100 = 0.7\r\n\r\n        emit InterestRateChanged(block.timestamp, numerator);\r\n    }\r\n\r\n    event Borrwed(uint time, uint amount, uint interest, address borrower);\r\n\r\n    // external \r\n    // public \r\n\r\n    //   contract  active \r\n    // \r\n    function borrow(uint amount) external notAnOwner whenActive {\r\n        require(address(this).balance >= amount, \"Not enough balance\");\r\n\r\n        //  *   *  /\r\n        uint interest = (amount * interestRateNumberator / interestRateDenominator); // \r\n        uint debt = amount + interest;\r\n\r\n        //  return 0 \r\n        if (debts[msg.sender].balance == 0) {\r\n            //  0 \r\n            //  array \r\n            borrowers.push(msg.sender);\r\n\r\n            //  map table\r\n            debts[msg.sender] = DebInfo(0, 0);\r\n        }\r\n        debts[msg.sender].balance += debt;\r\n        debts[msg.sender].lastBorrowed = block.timestamp;\r\n\r\n        //   amount \r\n        // transfer  func  address\r\n        payable(msg.sender).transfer(amount);\r\n\r\n        // , , , \r\n        emit Borrwed(block.timestamp, amount, interest, msg.sender);\r\n    }\r\n\r\n\r\n    // \r\n    event Paybacked(uint time, uint amount, uint remaining, address borrower);\r\n    // period \r\n    event LatePayback(uint time, uint amount, uint remaining, address borrower, uint period);\r\n    // \r\n    event deptClreared(uint time, address borrower);\r\n\r\n    // \r\n    // payable \r\n    function payback() external payable notAnOwner whenActive {\r\n        // \r\n        require(msg.value <= debts[msg.sender].balance, \"Overpaid not allowed\");\r\n\r\n        //  - \r\n        debts[msg.sender].balance -= msg.value;\r\n\r\n    \r\n        if (block.timestamp - debts[msg.sender].lastBorrowed < PAYBACK_PERIOD) {\r\n            // \r\n            emit Paybacked(block.timestamp, msg.value, debts[msg.sender].balance, msg.sender);\r\n        } else {\r\n            // \r\n            emit LatePayback(\r\n                block.timestamp, \r\n                msg.value, \r\n                debts[msg.sender].balance, \r\n                msg.sender, \r\n                block.timestamp - debts[msg.sender].lastBorrowed - PAYBACK_PERIOD);\r\n        }\r\n\r\n        // \r\n        if (debts[msg.sender].balance == 0) {\r\n            for (uint i = 0; i < borrowers.length; i++) {\r\n                if (borrowers[i] == msg.sender) {\r\n                    delete borrowers[i];\r\n                    delete debts[msg.sender];\r\n                    emit deptClreared(block.timestamp, msg.sender);\r\n                    break;\r\n                }\r\n            }\r\n        }\r\n    }\r\n\r\n    event Withdraw(uint time, uint amount);\r\n    // \r\n    function withdraw(uint amount) external onlyOwner whenActive {\r\n\r\n        //  contract \r\n        require (amount <= address(this).balance, \"Not enough balance\");\r\n        // address .transfer()\r\n        owner.transfer(amount);\r\n        emit Withdraw(block.timestamp, amount);\r\n    }\r\n\r\n    event ClosedDown(uint time);\r\n    //\r\n    function closeDown() external onlyOwner whenActive {\r\n        require (borrowers.length == 0, \"Can not close due existing borrowers\");\r\n        active = false;\r\n        emit ClosedDown(block.timestamp);\r\n        \r\n        //  \r\n        // address \r\n        //  Owner \r\n        selfdestruct(owner);\r\n    }\r\n}",
  "sourcePath": "C:\\Users\\mintc\\Documents\\GitHub\\DPU-solidity\\contracts\\SimpleLoan.sol",
  "compiler": {
    "name": "solc",
    "version": "0.8.13+commit.abaa5c0e.Emscripten.clang"
  },
  "schemaVersion": "3.4.10",
  "updatedAt": "2022-11-07T04:54:34.378Z",
  "networkType": "ethereum",
  "devdoc": {
    "kind": "dev",
    "methods": {},
    "version": 1
  },
  "userdoc": {
    "kind": "user",
    "methods": {},
    "version": 1
  }
}