{
  "contractName": "SimpleLoan",
  "abi": [
    {
      "inputs": [],
      "stateMutability": "nonpayable",
      "type": "constructor"
    },
    {
      "anonymous": false,
      "inputs": [
        {
          "indexed": false,
          "internalType": "uint256",
          "name": "time",
          "type": "uint256"
        },
        {
          "indexed": false,
          "internalType": "uint256",
          "name": "amount",
          "type": "uint256"
        },
        {
          "indexed": false,
          "internalType": "uint256",
          "name": "interest",
          "type": "uint256"
        },
        {
          "indexed": false,
          "internalType": "address",
          "name": "borrower",
          "type": "address"
        }
      ],
      "name": "Borrwed",
      "type": "event"
    },
    {
      "anonymous": false,
      "inputs": [
        {
          "indexed": false,
          "internalType": "uint256",
          "name": "time",
          "type": "uint256"
        }
      ],
      "name": "ClosedDown",
      "type": "event"
    },
    {
      "anonymous": false,
      "inputs": [
        {
          "indexed": false,
          "internalType": "uint256",
          "name": "time",
          "type": "uint256"
        },
        {
          "indexed": false,
          "internalType": "uint256",
          "name": "amout",
          "type": "uint256"
        },
        {
          "indexed": false,
          "internalType": "uint256",
          "name": "balance",
          "type": "uint256"
        }
      ],
      "name": "Deposited",
      "type": "event"
    },
    {
      "anonymous": false,
      "inputs": [
        {
          "indexed": false,
          "internalType": "uint256",
          "name": "time",
          "type": "uint256"
        },
        {
          "indexed": false,
          "internalType": "uint256",
          "name": "newRate",
          "type": "uint256"
        }
      ],
      "name": "InterestRateChanged",
      "type": "event"
    },
    {
      "anonymous": false,
      "inputs": [
        {
          "indexed": false,
          "internalType": "uint256",
          "name": "time",
          "type": "uint256"
        },
        {
          "indexed": false,
          "internalType": "uint256",
          "name": "amount",
          "type": "uint256"
        },
        {
          "indexed": false,
          "internalType": "uint256",
          "name": "remaining",
          "type": "uint256"
        },
        {
          "indexed": false,
          "internalType": "address",
          "name": "borrower",
          "type": "address"
        },
        {
          "indexed": false,
          "internalType": "uint256",
          "name": "period",
          "type": "uint256"
        }
      ],
      "name": "LatePayback",
      "type": "event"
    },
    {
      "anonymous": false,
      "inputs": [
        {
          "indexed": false,
          "internalType": "uint256",
          "name": "time",
          "type": "uint256"
        },
        {
          "indexed": false,
          "internalType": "uint256",
          "name": "amount",
          "type": "uint256"
        },
        {
          "indexed": false,
          "internalType": "uint256",
          "name": "remaining",
          "type": "uint256"
        },
        {
          "indexed": false,
          "internalType": "address",
          "name": "borrower",
          "type": "address"
        }
      ],
      "name": "Paybacked",
      "type": "event"
    },
    {
      "anonymous": false,
      "inputs": [
        {
          "indexed": false,
          "internalType": "uint256",
          "name": "time",
          "type": "uint256"
        },
        {
          "indexed": false,
          "internalType": "uint256",
          "name": "amount",
          "type": "uint256"
        }
      ],
      "name": "Withdraw",
      "type": "event"
    },
    {
      "anonymous": false,
      "inputs": [
        {
          "indexed": false,
          "internalType": "uint256",
          "name": "time",
          "type": "uint256"
        },
        {
          "indexed": false,
          "internalType": "address",
          "name": "borrower",
          "type": "address"
        }
      ],
      "name": "deptClreared",
      "type": "event"
    },
    {
      "inputs": [],
      "name": "DEFAULT_INTEREST_DEMONIRATOR",
      "outputs": [
        {
          "internalType": "uint256",
          "name": "",
          "type": "uint256"
        }
      ],
      "stateMutability": "view",
      "type": "function",
      "constant": true
    },
    {
      "inputs": [],
      "name": "DEFAULT_INTEREST_NUMERATOR",
      "outputs": [
        {
          "internalType": "uint256",
          "name": "",
          "type": "uint256"
        }
      ],
      "stateMutability": "view",
      "type": "function",
      "constant": true
    },
    {
      "inputs": [],
      "name": "PAYBACK_PERIOD",
      "outputs": [
        {
          "internalType": "uint256",
          "name": "",
          "type": "uint256"
        }
      ],
      "stateMutability": "view",
      "type": "function",
      "constant": true
    },
    {
      "inputs": [
        {
          "internalType": "uint256",
          "name": "",
          "type": "uint256"
        }
      ],
      "name": "borrowers",
      "outputs": [
        {
          "internalType": "address",
          "name": "",
          "type": "address"
        }
      ],
      "stateMutability": "view",
      "type": "function",
      "constant": true
    },
    {
      "inputs": [
        {
          "internalType": "address",
          "name": "",
          "type": "address"
        }
      ],
      "name": "debts",
      "outputs": [
        {
          "internalType": "uint256",
          "name": "balance",
          "type": "uint256"
        },
        {
          "internalType": "uint256",
          "name": "lastBorrowed",
          "type": "uint256"
        }
      ],
      "stateMutability": "view",
      "type": "function",
      "constant": true
    },
    {
      "inputs": [],
      "name": "interestRateDenominator",
      "outputs": [
        {
          "internalType": "uint256",
          "name": "",
          "type": "uint256"
        }
      ],
      "stateMutability": "view",
      "type": "function",
      "constant": true
    },
    {
      "inputs": [],
      "name": "interestRateNumberator",
      "outputs": [
        {
          "internalType": "uint256",
          "name": "",
          "type": "uint256"
        }
      ],
      "stateMutability": "view",
      "type": "function",
      "constant": true
    },
    {
      "inputs": [],
      "name": "getBorrowers",
      "outputs": [
        {
          "internalType": "address[]",
          "name": "",
          "type": "address[]"
        }
      ],
      "stateMutability": "view",
      "type": "function",
      "constant": true
    },
    {
      "inputs": [
        {
          "internalType": "address",
          "name": "borrower",
          "type": "address"
        }
      ],
      "name": "getDebt",
      "outputs": [
        {
          "internalType": "uint256",
          "name": "",
          "type": "uint256"
        }
      ],
      "stateMutability": "view",
      "type": "function",
      "constant": true
    },
    {
      "inputs": [],
      "name": "deposit",
      "outputs": [],
      "stateMutability": "payable",
      "type": "function",
      "payable": true
    },
    {
      "inputs": [
        {
          "internalType": "uint256",
          "name": "numerator",
          "type": "uint256"
        }
      ],
      "name": "setInterestRate",
      "outputs": [],
      "stateMutability": "nonpayable",
      "type": "function"
    },
    {
      "inputs": [
        {
          "internalType": "uint256",
          "name": "amount",
          "type": "uint256"
        }
      ],
      "name": "borrow",
      "outputs": [],
      "stateMutability": "nonpayable",
      "type": "function"
    },
    {
      "inputs": [],
      "name": "payback",
      "outputs": [],
      "stateMutability": "payable",
      "type": "function",
      "payable": true
    },
    {
      "inputs": [
        {
          "internalType": "uint256",
          "name": "amount",
          "type": "uint256"
        }
      ],
      "name": "withdraw",
      "outputs": [],
      "stateMutability": "nonpayable",
      "type": "function"
    },
    {
      "inputs": [],
      "name": "closeDown",
      "outputs": [],
      "stateMutability": "nonpayable",
      "type": "function"
    }
  ],
  "bytecode": "0x608060405234801561001057600080fd5b50336000806101000a81548173ffffffffffffffffffffffffffffffffffffffff021916908373ffffffffffffffffffffffffffffffffffffffff1602179055506001600281905550600a6003819055506001600560006101000a81548160ff021916908315150217905550611bec8061008b6000396000f3fe6080604052600436106100e85760003560e01c80635f84f3021161008a57806386280ef01161005957806386280ef0146102b25780639a78e72e146102dd578063c5ebeaec1461031a578063d0e30db014610343576100e8565b80635f84f302146102175780636854786a146102405780637924d93f1461026b578063854bec87146102a8576100e8565b806349445faa116100c657806349445faa1461017f57806355ffe2a0146101aa5780635a4362e5146101d55780635cb0a215146101ec576100e8565b80631c00d1c2146100ed5780632e1a7d4d146101185780632ecd4e7d14610141575b600080fd5b3480156100f957600080fd5b5061010261034d565b60405161010f9190611372565b60405180910390f35b34801561012457600080fd5b5061013f600480360381019061013a91906113be565b610354565b005b34801561014d57600080fd5b5061016860048036038101906101639190611449565b610517565b604051610176929190611476565b60405180910390f35b34801561018b57600080fd5b5061019461053b565b6040516101a19190611372565b60405180910390f35b3480156101b657600080fd5b506101bf610541565b6040516101cc9190611372565b60405180910390f35b3480156101e157600080fd5b506101ea610547565b005b3480156101f857600080fd5b506102016106f7565b60405161020e9190611372565b60405180910390f35b34801561022357600080fd5b5061023e600480360381019061023991906113be565b6106fc565b005b34801561024c57600080fd5b50610255610867565b604051610262919061155d565b60405180910390f35b34801561027757600080fd5b50610292600480360381019061028d91906113be565b6108f5565b60405161029f919061158e565b60405180910390f35b6102b0610934565b005b3480156102be57600080fd5b506102c7610e5b565b6040516102d49190611372565b60405180910390f35b3480156102e957600080fd5b5061030460048036038101906102ff9190611449565b610e60565b6040516103119190611372565b60405180910390f35b34801561032657600080fd5b50610341600480360381019061033c91906113be565b610eac565b005b61034b61123f565b005b62093a8081565b60008054906101000a900473ffffffffffffffffffffffffffffffffffffffff1673ffffffffffffffffffffffffffffffffffffffff163373ffffffffffffffffffffffffffffffffffffffff16146103e2576040517f08c379a00000000000000000000000000000000000000000000000000000000081526004016103d990611606565b60405180910390fd5b600560009054906101000a900460ff16610431576040517f08c379a000000000000000000000000000000000000000000000000000000000815260040161042890611672565b60405180910390fd5b47811115610474576040517f08c379a000000000000000000000000000000000000000000000000000000000815260040161046b906116de565b60405180910390fd5b60008054906101000a900473ffffffffffffffffffffffffffffffffffffffff1673ffffffffffffffffffffffffffffffffffffffff166108fc829081150290604051600060405180830381858888f193505050501580156104da573d6000803e3d6000fd5b507f56ca301a9219608c91e7bcee90e083c19671d2cdcc96752c7af291cee5f9c8c8428260405161050c929190611476565b60405180910390a150565b60016020528060005260406000206000915090508060000154908060010154905082565b60025481565b60035481565b60008054906101000a900473ffffffffffffffffffffffffffffffffffffffff1673ffffffffffffffffffffffffffffffffffffffff163373ffffffffffffffffffffffffffffffffffffffff16146105d5576040517f08c379a00000000000000000000000000000000000000000000000000000000081526004016105cc90611606565b60405180910390fd5b600560009054906101000a900460ff16610624576040517f08c379a000000000000000000000000000000000000000000000000000000000815260040161061b90611672565b60405180910390fd5b60006004805490501461066c576040517f08c379a000000000000000000000000000000000000000000000000000000000815260040161066390611770565b60405180910390fd5b6000600560006101000a81548160ff0219169083151502179055507f445f40d7036a39a53d5b99242bad06cc83dedd86210f42b498d96bd0926ef4a8426040516106b69190611372565b60405180910390a160008054906101000a900473ffffffffffffffffffffffffffffffffffffffff1673ffffffffffffffffffffffffffffffffffffffff16ff5b600181565b60008054906101000a900473ffffffffffffffffffffffffffffffffffffffff1673ffffffffffffffffffffffffffffffffffffffff163373ffffffffffffffffffffffffffffffffffffffff161461078a576040517f08c379a000000000000000000000000000000000000000000000000000000000815260040161078190611606565b60405180910390fd5b600560009054906101000a900460ff166107d9576040517f08c379a00000000000000000000000000000000000000000000000000000000081526004016107d090611672565b60405180910390fd5b6000811161081c576040517f08c379a0000000000000000000000000000000000000000000000000000000008152600401610813906117dc565b60405180910390fd5b8060038190555060646002819055507ff93ce1b2e2cb74b524760dff1842e28b944e9c40627c07348a36c404be739c02428260405161085c929190611476565b60405180910390a150565b606060048054806020026020016040519081016040528092919081815260200182805480156108eb57602002820191906000526020600020905b8160009054906101000a900473ffffffffffffffffffffffffffffffffffffffff1673ffffffffffffffffffffffffffffffffffffffff16815260200190600101908083116108a1575b5050505050905090565b6004818154811061090557600080fd5b906000526020600020016000915054906101000a900473ffffffffffffffffffffffffffffffffffffffff1681565b60008054906101000a900473ffffffffffffffffffffffffffffffffffffffff1673ffffffffffffffffffffffffffffffffffffffff163373ffffffffffffffffffffffffffffffffffffffff16036109c2576040517f08c379a00000000000000000000000000000000000000000000000000000000081526004016109b990611848565b60405180910390fd5b600560009054906101000a900460ff16610a11576040517f08c379a0000000000000000000000000000000000000000000000000000000008152600401610a0890611672565b60405180910390fd5b600160003373ffffffffffffffffffffffffffffffffffffffff1673ffffffffffffffffffffffffffffffffffffffff16815260200190815260200160002060000154341115610a96576040517f08c379a0000000000000000000000000000000000000000000000000000000008152600401610a8d906118b4565b60405180910390fd5b34600160003373ffffffffffffffffffffffffffffffffffffffff1673ffffffffffffffffffffffffffffffffffffffff1681526020019081526020016000206000016000828254610ae89190611903565b9250508190555062093a80600160003373ffffffffffffffffffffffffffffffffffffffff1673ffffffffffffffffffffffffffffffffffffffff1681526020019081526020016000206001015442610b419190611903565b1015610bcb577f01cc4a5b4b7296e86c48d414286509d7cd8c31131f816dcd54164066421fd36f4234600160003373ffffffffffffffffffffffffffffffffffffffff1673ffffffffffffffffffffffffffffffffffffffff1681526020019081526020016000206000015433604051610bbe9493929190611937565b60405180910390a1610ca8565b7fece349fd3256bf07228c22858d5c2f2f187f8b1a9fe22feacc94258dda25183f4234600160003373ffffffffffffffffffffffffffffffffffffffff1673ffffffffffffffffffffffffffffffffffffffff168152602001908152602001600020600001543362093a80600160003373ffffffffffffffffffffffffffffffffffffffff1673ffffffffffffffffffffffffffffffffffffffff1681526020019081526020016000206001015442610c849190611903565b610c8e9190611903565b604051610c9f95949392919061197c565b60405180910390a15b6000600160003373ffffffffffffffffffffffffffffffffffffffff1673ffffffffffffffffffffffffffffffffffffffff1681526020019081526020016000206000015403610e595760005b600480549050811015610e57573373ffffffffffffffffffffffffffffffffffffffff1660048281548110610d2d57610d2c6119cf565b5b9060005260206000200160009054906101000a900473ffffffffffffffffffffffffffffffffffffffff1673ffffffffffffffffffffffffffffffffffffffff1603610e445760048181548110610d8757610d866119cf565b5b9060005260206000200160006101000a81549073ffffffffffffffffffffffffffffffffffffffff0219169055600160003373ffffffffffffffffffffffffffffffffffffffff1673ffffffffffffffffffffffffffffffffffffffff168152602001908152602001600020600080820160009055600182016000905550507f97f1c33d1a9e456dc505ffc7b617c5471a1ede71a1f26559e27b39149a3f0e614233604051610e379291906119fe565b60405180910390a1610e57565b8080610e4f90611a27565b915050610cf5565b505b565b600a81565b6000600160008373ffffffffffffffffffffffffffffffffffffffff1673ffffffffffffffffffffffffffffffffffffffff168152602001908152602001600020600001549050919050565b60008054906101000a900473ffffffffffffffffffffffffffffffffffffffff1673ffffffffffffffffffffffffffffffffffffffff163373ffffffffffffffffffffffffffffffffffffffff1603610f3a576040517f08c379a0000000000000000000000000000000000000000000000000000000008152600401610f3190611848565b60405180910390fd5b600560009054906101000a900460ff16610f89576040517f08c379a0000000000000000000000000000000000000000000000000000000008152600401610f8090611672565b60405180910390fd5b80471015610fcc576040517f08c379a0000000000000000000000000000000000000000000000000000000008152600401610fc3906116de565b60405180910390fd5b600060035460025483610fdf9190611a6f565b610fe99190611af8565b905060008183610ff99190611b29565b90506000600160003373ffffffffffffffffffffffffffffffffffffffff1673ffffffffffffffffffffffffffffffffffffffff1681526020019081526020016000206000015403611116576004339080600181540180825580915050600190039060005260206000200160009091909190916101000a81548173ffffffffffffffffffffffffffffffffffffffff021916908373ffffffffffffffffffffffffffffffffffffffff1602179055506040518060400160405280600081526020016000815250600160003373ffffffffffffffffffffffffffffffffffffffff1673ffffffffffffffffffffffffffffffffffffffff16815260200190815260200160002060008201518160000155602082015181600101559050505b80600160003373ffffffffffffffffffffffffffffffffffffffff1673ffffffffffffffffffffffffffffffffffffffff16815260200190815260200160002060000160008282546111689190611b29565b9250508190555042600160003373ffffffffffffffffffffffffffffffffffffffff1673ffffffffffffffffffffffffffffffffffffffff168152602001908152602001600020600101819055503373ffffffffffffffffffffffffffffffffffffffff166108fc849081150290604051600060405180830381858888f193505050501580156111fc573d6000803e3d6000fd5b507fb472f2f9a210ccf31efa616d36ada80b62475a44d4d87a40dbea6ea521c13804428484336040516112329493929190611937565b60405180910390a1505050565b60008054906101000a900473ffffffffffffffffffffffffffffffffffffffff1673ffffffffffffffffffffffffffffffffffffffff163373ffffffffffffffffffffffffffffffffffffffff16146112cd576040517f08c379a00000000000000000000000000000000000000000000000000000000081526004016112c490611606565b60405180910390fd5b600560009054906101000a900460ff1661131c576040517f08c379a000000000000000000000000000000000000000000000000000000000815260040161131390611672565b60405180910390fd5b7f1ca606821992e3b34613b5b29c0bbade3a907b2969d7f9f2927f726fa4baccfb42344760405161134f93929190611b7f565b60405180910390a1565b6000819050919050565b61136c81611359565b82525050565b60006020820190506113876000830184611363565b92915050565b600080fd5b61139b81611359565b81146113a657600080fd5b50565b6000813590506113b881611392565b92915050565b6000602082840312156113d4576113d361138d565b5b60006113e2848285016113a9565b91505092915050565b600073ffffffffffffffffffffffffffffffffffffffff82169050919050565b6000611416826113eb565b9050919050565b6114268161140b565b811461143157600080fd5b50565b6000813590506114438161141d565b92915050565b60006020828403121561145f5761145e61138d565b5b600061146d84828501611434565b91505092915050565b600060408201905061148b6000830185611363565b6114986020830184611363565b9392505050565b600081519050919050565b600082825260208201905092915050565b6000819050602082019050919050565b6114d48161140b565b82525050565b60006114e683836114cb565b60208301905092915050565b6000602082019050919050565b600061150a8261149f565b61151481856114aa565b935061151f836114bb565b8060005b8381101561155057815161153788826114da565b9750611542836114f2565b925050600181019050611523565b5085935050505092915050565b6000602082019050818103600083015261157781846114ff565b905092915050565b6115888161140b565b82525050565b60006020820190506115a3600083018461157f565b92915050565b600082825260208201905092915050565b7f4f6e6c79206f776e657220616c6c6f7765640000000000000000000000000000600082015250565b60006115f06012836115a9565b91506115fb826115ba565b602082019050919050565b6000602082019050818103600083015261161f816115e3565b9050919050565b7f436f6e7472616374206973206e6f742061637469766500000000000000000000600082015250565b600061165c6016836115a9565b915061166782611626565b602082019050919050565b6000602082019050818103600083015261168b8161164f565b9050919050565b7f4e6f7420656e6f7567682062616c616e63650000000000000000000000000000600082015250565b60006116c86012836115a9565b91506116d382611692565b602082019050919050565b600060208201905081810360008301526116f7816116bb565b9050919050565b7f43616e206e6f7420636c6f736520647565206578697374696e6720626f72726f60008201527f7765727300000000000000000000000000000000000000000000000000000000602082015250565b600061175a6024836115a9565b9150611765826116fe565b604082019050919050565b600060208201905081810360008301526117898161174d565b9050919050565b7f496e76616c696420696e74657265737420726174650000000000000000000000600082015250565b60006117c66015836115a9565b91506117d182611790565b602082019050919050565b600060208201905081810360008301526117f5816117b9565b9050919050565b7f4f6e6c79206f776e6572206e6f7420616c6c6f77656400000000000000000000600082015250565b60006118326016836115a9565b915061183d826117fc565b602082019050919050565b6000602082019050818103600083015261186181611825565b9050919050565b7f4f76657270616964206e6f7420616c6c6f776564000000000000000000000000600082015250565b600061189e6014836115a9565b91506118a982611868565b602082019050919050565b600060208201905081810360008301526118cd81611891565b9050919050565b7f4e487b7100000000000000000000000000000000000000000000000000000000600052601160045260246000fd5b600061190e82611359565b915061191983611359565b92508282101561192c5761192b6118d4565b5b828203905092915050565b600060808201905061194c6000830187611363565b6119596020830186611363565b6119666040830185611363565b611973606083018461157f565b95945050505050565b600060a0820190506119916000830188611363565b61199e6020830187611363565b6119ab6040830186611363565b6119b8606083018561157f565b6119c56080830184611363565b9695505050505050565b7f4e487b7100000000000000000000000000000000000000000000000000000000600052603260045260246000fd5b6000604082019050611a136000830185611363565b611a20602083018461157f565b9392505050565b6000611a3282611359565b91507fffffffffffffffffffffffffffffffffffffffffffffffffffffffffffffffff8203611a6457611a636118d4565b5b600182019050919050565b6000611a7a82611359565b9150611a8583611359565b9250817fffffffffffffffffffffffffffffffffffffffffffffffffffffffffffffffff0483118215151615611abe57611abd6118d4565b5b828202905092915050565b7f4e487b7100000000000000000000000000000000000000000000000000000000600052601260045260246000fd5b6000611b0382611359565b9150611b0e83611359565b925082611b1e57611b1d611ac9565b5b828204905092915050565b6000611b3482611359565b9150611b3f83611359565b9250827fffffffffffffffffffffffffffffffffffffffffffffffffffffffffffffffff03821115611b7457611b736118d4565b5b828201905092915050565b6000606082019050611b946000830186611363565b611ba16020830185611363565b611bae6040830184611363565b94935050505056fea2646970667358221220ff511d3cf61dcf6d057afad6c072b8f5b3e503f64480321a9acbf924582ab24564736f6c634300080d0033",
  "immutableReferences": {},
  "source": "// SPDX-License-Identifier: SEE LICENSE IN LICENSE\r\npragma solidity  >=0.8.0;\r\n\r\ncontract SimpleLoan {\r\n    // payable \r\n    address payable owner;\r\n\r\n    // \r\n    struct DebInfo {\r\n        uint balance; // \r\n        uint lastBorrowed; //  (block.timestamp)\r\n    }\r\n\r\n    // key: val | address: id , DebInfo \r\n    mapping(address => DebInfo) public debts; // Debt tables\r\n    // solidity  \r\n    // \r\n    uint public interestRateNumberator;\r\n\r\n    // \r\n    uint public interestRateDenominator;\r\n\r\n    uint public constant DEFAULT_INTEREST_NUMERATOR = 1;\r\n    uint public constant DEFAULT_INTEREST_DEMONIRATOR = 10;\r\n    uint public constant PAYBACK_PERIOD = 60 * 60 * 24 * 7; // , , , \r\n\r\n    // \r\n    address[] public borrowers; \r\n    //  contract\r\n    bool active;\r\n\r\n    constructor() {\r\n        // msg  contract\r\n        owner = payable(msg.sender);\r\n        interestRateNumberator = DEFAULT_INTEREST_NUMERATOR;\r\n        interestRateDenominator = DEFAULT_INTEREST_DEMONIRATOR;\r\n\r\n        //  contract \r\n        active = true;\r\n    }\r\n\r\n    // \r\n    modifier onlyOwner {\r\n        //  require \r\n        require(msg.sender == owner, \"Only owner allowed\");\r\n        _; //\r\n    }\r\n\r\n    modifier notAnOwner {\r\n        require(msg.sender != owner, \"Only owner not allowed\");\r\n        _;\r\n    }\r\n\r\n    modifier whenActive {\r\n        require(active, \"Contract is not active\");\r\n        _;\r\n    }\r\n\r\n    function getBorrowers() public view  returns (address[] memory) {\r\n        return borrowers;\r\n    }\r\n\r\n    function  getDebt(address borrower) public view  returns (uint) {\r\n        return debts[borrower].balance;\r\n    }\r\n\r\n    // event  log\r\n    event Deposited(uint time, uint amout, uint balance);\r\n    //  payable\r\n    //  owner  contract  active\r\n    function deposit() public payable onlyOwner whenActive {\r\n        // ( block,  msg,  balance  contract  this  address  balance)\r\n        emit Deposited(block.timestamp, msg.value, address(this).balance);\r\n    }\r\n\r\n    // log rate\r\n    event InterestRateChanged(uint time, uint newRate);\r\n    //  0 - 100\r\n    function setInterestRate(uint numerator) public onlyOwner whenActive {\r\n        require(numerator > 0, \"Invalid interest rate\");\r\n        interestRateDenominator = numerator;\r\n        interestRateNumberator = 100;\r\n\r\n        //example 7 / 100 = 0.7\r\n\r\n        emit InterestRateChanged(block.timestamp, numerator);\r\n    }\r\n\r\n    event Borrwed(uint time, uint amount, uint interest, address borrower);\r\n\r\n    // external \r\n    // public \r\n\r\n    //   contract  active \r\n    // \r\n    function borrow(uint amount) external notAnOwner whenActive {\r\n        require(address(this).balance >= amount, \"Not enough balance\");\r\n\r\n        //  *   *  /\r\n        uint interest = (amount * interestRateNumberator / interestRateDenominator); // \r\n        uint debt = amount + interest;\r\n\r\n        //  return 0 \r\n        if (debts[msg.sender].balance == 0) {\r\n            //  0 \r\n            //  array \r\n            borrowers.push(msg.sender);\r\n\r\n            //  map table\r\n            debts[msg.sender] = DebInfo(0, 0);\r\n        }\r\n        debts[msg.sender].balance += debt;\r\n        debts[msg.sender].lastBorrowed = block.timestamp;\r\n\r\n        //   amount \r\n        // transfer  func  address\r\n        payable(msg.sender).transfer(amount);\r\n\r\n        // , , , \r\n        emit Borrwed(block.timestamp, amount, interest, msg.sender);\r\n    }\r\n\r\n\r\n    // \r\n    event Paybacked(uint time, uint amount, uint remaining, address borrower);\r\n    // period \r\n    event LatePayback(uint time, uint amount, uint remaining, address borrower, uint period);\r\n    // \r\n    event deptClreared(uint time, address borrower);\r\n\r\n    // \r\n    // payable \r\n    function payback() external payable notAnOwner whenActive {\r\n        // \r\n        require(msg.value <= debts[msg.sender].balance, \"Overpaid not allowed\");\r\n\r\n        //  - \r\n        debts[msg.sender].balance -= msg.value;\r\n\r\n    \r\n        if (block.timestamp - debts[msg.sender].lastBorrowed < PAYBACK_PERIOD) {\r\n            // \r\n            emit Paybacked(block.timestamp, msg.value, debts[msg.sender].balance, msg.sender);\r\n        } else {\r\n            // \r\n            emit LatePayback(\r\n                block.timestamp, \r\n                msg.value, \r\n                debts[msg.sender].balance, \r\n                msg.sender, \r\n                block.timestamp - debts[msg.sender].lastBorrowed - PAYBACK_PERIOD);\r\n        }\r\n\r\n        // \r\n        if (debts[msg.sender].balance == 0) {\r\n            for (uint i = 0; i < borrowers.length; i++) {\r\n                if (borrowers[i] == msg.sender) {\r\n                    delete borrowers[i];\r\n                    delete debts[msg.sender];\r\n                    emit deptClreared(block.timestamp, msg.sender);\r\n                    break;\r\n                }\r\n            }\r\n        }\r\n    }\r\n\r\n    event Withdraw(uint time, uint amount);\r\n    // \r\n    function withdraw(uint amount) external onlyOwner whenActive {\r\n\r\n        //  contract \r\n        require (amount <= address(this).balance, \"Not enough balance\");\r\n        // address .transfer()\r\n        owner.transfer(amount);\r\n        emit Withdraw(block.timestamp, amount);\r\n    }\r\n\r\n    event ClosedDown(uint time);\r\n    //\r\n    function closeDown() external onlyOwner whenActive {\r\n        require (borrowers.length == 0, \"Can not close due existing borrowers\");\r\n        active = false;\r\n        emit ClosedDown(block.timestamp);\r\n        \r\n        //  \r\n        // address \r\n        //  Owner \r\n        selfdestruct(owner);\r\n    }\r\n}",
  "sourcePath": "C:\\Users\\mintc\\Documents\\GitHub\\DPU-solidity\\contracts\\SimpleLoan.sol",
  "compiler": {
    "name": "solc",
    "version": "0.8.13+commit.abaa5c0e.Emscripten.clang"
  },
  "schemaVersion": "3.4.10",
  "updatedAt": "2022-11-21T05:14:52.875Z",
  "networkType": "ethereum",
  "devdoc": {
    "kind": "dev",
    "methods": {},
    "version": 1
  },
  "userdoc": {
    "kind": "user",
    "methods": {},
    "version": 1
  }
}